{
  "contractName": "Vendor",
  "abi": [
    {
      "anonymous": false,
      "inputs": [
        {
          "indexed": true,
          "name": "device_id",
          "type": "address"
        },
        {
          "indexed": false,
          "name": "index",
          "type": "uint256"
        },
        {
          "indexed": false,
          "name": "timestamp",
          "type": "uint256"
        },
        {
          "indexed": false,
          "name": "filehash",
          "type": "string"
        }
      ],
      "name": "log_action",
      "type": "event"
    },
    {
      "constant": true,
      "inputs": [
        {
          "name": "device_id",
          "type": "address"
        }
      ],
      "name": "is_device_present",
      "outputs": [
        {
          "name": "result",
          "type": "bool"
        }
      ],
      "payable": false,
      "stateMutability": "view",
      "type": "function"
    },
    {
      "constant": false,
      "inputs": [
        {
          "name": "device_id",
          "type": "address"
        },
        {
          "name": "filehash",
          "type": "string"
        }
      ],
      "name": "set_device_data",
      "outputs": [
        {
          "name": "index",
          "type": "uint256"
        },
        {
          "name": "timestamp",
          "type": "uint256"
        }
      ],
      "payable": false,
      "stateMutability": "nonpayable",
      "type": "function"
    },
    {
      "constant": true,
      "inputs": [
        {
          "name": "device_id",
          "type": "address"
        },
        {
          "name": "timestamp",
          "type": "uint256"
        }
      ],
      "name": "get_device_data",
      "outputs": [
        {
          "name": "hash",
          "type": "string"
        }
      ],
      "payable": false,
      "stateMutability": "view",
      "type": "function"
    },
    {
      "constant": true,
      "inputs": [
        {
          "name": "device_id",
          "type": "address"
        }
      ],
      "name": "get_device_timestamps",
      "outputs": [
        {
          "name": "timestamp",
          "type": "uint256[]"
        }
      ],
      "payable": false,
      "stateMutability": "view",
      "type": "function"
    },
    {
      "constant": true,
      "inputs": [],
      "name": "get_device_count",
      "outputs": [
        {
          "name": "count",
          "type": "uint256"
        }
      ],
      "payable": false,
      "stateMutability": "view",
      "type": "function"
    },
    {
      "constant": true,
      "inputs": [
        {
          "name": "index",
          "type": "uint256"
        }
      ],
      "name": "get_device_at_index",
      "outputs": [
        {
          "name": "device_address",
          "type": "address"
        }
      ],
      "payable": false,
      "stateMutability": "view",
      "type": "function"
    },
    {
      "constant": false,
      "inputs": [],
      "name": "vendor",
      "outputs": [],
      "payable": false,
      "stateMutability": "nonpayable",
      "type": "function"
    },
    {
      "constant": false,
      "inputs": [],
      "name": "kill",
      "outputs": [],
      "payable": false,
      "stateMutability": "nonpayable",
      "type": "function"
    }
  ],
  "bytecode": "0x608060405234801561001057600080fd5b5061121e806100206000396000f30060806040526004361061008e576000357c0100000000000000000000000000000000000000000000000000000000900463ffffffff168063076a881d146100935780631385a6f2146100be57806341c0e1b5146100d557806381aca4a4146100ec57806386ee703f14610184578063f42eb0e514610228578063fa4bb83814610283578063fc59fc3314610349575b600080fd5b34801561009f57600080fd5b506100a86103b6565b6040518082815260200191505060405180910390f35b3480156100ca57600080fd5b506100d36103c3565b005b3480156100e157600080fd5b506100ea610405565b005b3480156100f857600080fd5b5061012d600480360381019080803573ffffffffffffffffffffffffffffffffffffffff169060200190929190505050610496565b6040518080602001828103825283818151815260200191508051906020019060200280838360005b83811015610170578082015181840152602081019050610155565b505050509050019250505060405180910390f35b34801561019057600080fd5b5061020b600480360381019080803573ffffffffffffffffffffffffffffffffffffffff169060200190929190803590602001908201803590602001908080601f0160208091040260200160405190810160405280939291908181526020018383808284378201915050505050509192919290505050610544565b604051808381526020018281526020019250505060405180910390f35b34801561023457600080fd5b50610269600480360381019080803573ffffffffffffffffffffffffffffffffffffffff169060200190929190505050610cf9565b604051808215151515815260200191505060405180910390f35b34801561028f57600080fd5b506102ce600480360381019080803573ffffffffffffffffffffffffffffffffffffffff16906020019092919080359060200190929190505050610dc3565b6040518080602001828103825283818151815260200191508051906020019080838360005b8381101561030e5780820151818401526020810190506102f3565b50505050905090810190601f16801561033b5780820380516001836020036101000a031916815260200191505b509250505060405180910390f35b34801561035557600080fd5b5061037460048036038101908080359060200190929190505050610ecd565b604051808273ffffffffffffffffffffffffffffffffffffffff1673ffffffffffffffffffffffffffffffffffffffff16815260200191505060405180910390f35b6000600280549050905090565b336000806101000a81548173ffffffffffffffffffffffffffffffffffffffff021916908373ffffffffffffffffffffffffffffffffffffffff160217905550565b6000809054906101000a900473ffffffffffffffffffffffffffffffffffffffff1673ffffffffffffffffffffffffffffffffffffffff163373ffffffffffffffffffffffffffffffffffffffff161415610494576000809054906101000a900473ffffffffffffffffffffffffffffffffffffffff1673ffffffffffffffffffffffffffffffffffffffff16ff5b565b60606104a182610cf9565b15156104ac57600080fd5b600160008373ffffffffffffffffffffffffffffffffffffffff1673ffffffffffffffffffffffffffffffffffffffff16815260200190815260200160002060010180548060200260200160405190810160405280929190818152602001828054801561053857602002820191906000526020600020905b815481526020019060010190808311610524575b50505050509050919050565b600080600061055285610cf9565b15610a92574290506000600160008773ffffffffffffffffffffffffffffffffffffffff1673ffffffffffffffffffffffffffffffffffffffff16815260200190815260200160002060010180549050148061064d575080600160008773ffffffffffffffffffffffffffffffffffffffff1673ffffffffffffffffffffffffffffffffffffffff16815260200190815260200160002060010160018060008973ffffffffffffffffffffffffffffffffffffffff1673ffffffffffffffffffffffffffffffffffffffff168152602001908152602001600020600101805490500381548110151561064057fe5b9060005260206000200154105b1561072b57600160008673ffffffffffffffffffffffffffffffffffffffff1673ffffffffffffffffffffffffffffffffffffffff16815260200190815260200160002060010181908060018154018082558091505090600182039060005260206000200160009091929091909150555083600160008773ffffffffffffffffffffffffffffffffffffffff1673ffffffffffffffffffffffffffffffffffffffff1681526020019081526020016000206002016000838152602001908152602001600020908051906020019061072592919061114d565b50610940565b80600160008773ffffffffffffffffffffffffffffffffffffffff1673ffffffffffffffffffffffffffffffffffffffff16815260200190815260200160002060010160018060008973ffffffffffffffffffffffffffffffffffffffff1673ffffffffffffffffffffffffffffffffffffffff16815260200190815260200160002060010180549050038154811015156107c257fe5b90600052602060002001541415610934576108c8600160008773ffffffffffffffffffffffffffffffffffffffff1673ffffffffffffffffffffffffffffffffffffffff16815260200190815260200160002060020160008381526020019081526020016000208054600181600116156101000203166002900480601f0160208091040260200160405190810160405280929190818152602001828054600181600116156101000203166002900480156108bd5780601f10610892576101008083540402835291602001916108bd565b820191906000526020600020905b8154815290600101906020018083116108a057829003601f168201915b505050505085610f10565b600160008773ffffffffffffffffffffffffffffffffffffffff1673ffffffffffffffffffffffffffffffffffffffff1681526020019081526020016000206002016000838152602001908152602001600020908051906020019061092e92919061114d565b5061093f565b6000151561093e57fe5b5b5b8473ffffffffffffffffffffffffffffffffffffffff167f859b6eb0b11c065a74853fdef72e8482c5dcdd78186b206a9236392f722fa494600160008873ffffffffffffffffffffffffffffffffffffffff1673ffffffffffffffffffffffffffffffffffffffff1681526020019081526020016000206000015483876040518084815260200183815260200180602001828103825283818151815260200191508051906020019080838360005b83811015610a095780820151818401526020810190506109ee565b50505050905090810190601f168015610a365780820380516001836020036101000a031916815260200191505b5094505050505060405180910390a2600160008673ffffffffffffffffffffffffffffffffffffffff1673ffffffffffffffffffffffffffffffffffffffff168152602001908152602001600020600001548192509250610cf1565b429050600160008673ffffffffffffffffffffffffffffffffffffffff1673ffffffffffffffffffffffffffffffffffffffff16815260200190815260200160002060010181908060018154018082558091505090600182039060005260206000200160009091929091909150555083600160008773ffffffffffffffffffffffffffffffffffffffff1673ffffffffffffffffffffffffffffffffffffffff16815260200190815260200160002060020160008381526020019081526020016000209080519060200190610b6892919061114d565b50600160028690806001815401808255809150509060018203906000526020600020016000909192909190916101000a81548173ffffffffffffffffffffffffffffffffffffffff021916908373ffffffffffffffffffffffffffffffffffffffff16021790555003600160008773ffffffffffffffffffffffffffffffffffffffff1673ffffffffffffffffffffffffffffffffffffffff168152602001908152602001600020600001819055508473ffffffffffffffffffffffffffffffffffffffff167f859b6eb0b11c065a74853fdef72e8482c5dcdd78186b206a9236392f722fa49460016002805490500383876040518084815260200183815260200180602001828103825283818151815260200191508051906020019080838360005b83811015610ca6578082015181840152602081019050610c8b565b50505050905090810190601f168015610cd35780820380516001836020036101000a031916815260200191505b5094505050505060405180910390a260016002805490500381925092505b509250929050565b6000806002805490501415610d115760009050610dbe565b8173ffffffffffffffffffffffffffffffffffffffff166002600160008573ffffffffffffffffffffffffffffffffffffffff1673ffffffffffffffffffffffffffffffffffffffff16815260200190815260200160002060000154815481101515610d7957fe5b9060005260206000200160009054906101000a900473ffffffffffffffffffffffffffffffffffffffff1673ffffffffffffffffffffffffffffffffffffffff161490505b919050565b6060610dce83610cf9565b1515610dd957600080fd5b600160008473ffffffffffffffffffffffffffffffffffffffff1673ffffffffffffffffffffffffffffffffffffffff16815260200190815260200160002060020160008381526020019081526020016000208054600181600116156101000203166002900480601f016020809104026020016040519081016040528092919081815260200182805460018160011615610100020316600290048015610ec05780601f10610e9557610100808354040283529160200191610ec0565b820191906000526020600020905b815481529060010190602001808311610ea357829003601f168201915b5050505050905092915050565b6000600282815481101515610ede57fe5b9060005260206000200160009054906101000a900473ffffffffffffffffffffffffffffffffffffffff169050919050565b606080606080606060008088955087945084516001875101016040519080825280601f01601f191660200182016040528015610f5b5781602001602082028038833980820191505090505b5093508392506000915060009050600091505b8551821015611021578582815181101515610f8557fe5b9060200101517f010000000000000000000000000000000000000000000000000000000000000090047f0100000000000000000000000000000000000000000000000000000000000000028382806001019350815181101515610fe457fe5b9060200101907effffffffffffffffffffffffffffffffffffffffffffffffffffffffffffff1916908160001a9053508180600101925050610f6e565b7f2c00000000000000000000000000000000000000000000000000000000000000838280600101935081518110151561105657fe5b9060200101907effffffffffffffffffffffffffffffffffffffffffffffffffffffffffffff1916908160001a905350600091505b845182101561113e5784828151811015156110a257fe5b9060200101517f010000000000000000000000000000000000000000000000000000000000000090047f010000000000000000000000000000000000000000000000000000000000000002838280600101935081518110151561110157fe5b9060200101907effffffffffffffffffffffffffffffffffffffffffffffffffffffffffffff1916908160001a905350818060010192505061108b565b83965050505050505092915050565b828054600181600116156101000203166002900490600052602060002090601f016020900481019282601f1061118e57805160ff19168380011785556111bc565b828001600101855582156111bc579182015b828111156111bb5782518255916020019190600101906111a0565b5b5090506111c991906111cd565b5090565b6111ef91905b808211156111eb5760008160009055506001016111d3565b5090565b905600a165627a7a723058206fc9db6a37d14081a5e5229be8ac43b514f67f1ddfdb135452c81c0bd725c63a0029",
  "source": "pragma solidity ^0.4.6;\n\ncontract Vendor {\n    // contract owner\n    address private creator;\n\n    // IoT device data\n    struct device_data {\n        // link for detecting devices\n        uint index;\n        // blockchain timestamps stored swarm hashes  \n        uint[] timestamps;\n        // map timestamp values to swarm file hashes\n        mapping(uint => string) filehashes;\n    }\n    // map device id's to their data (one data per id)\n    mapping(address => device_data) private device_logs;\n    // keep a separate device id array of all received id's\n    address[] private device_index;\n    // event to log action\n    event log_action (address indexed device_id, uint index, uint timestamp, string filehash);\n\n    // check if device is seen before?\n    // https://medium.com/@robhitchens/solidity-crud-part-1-824ffa69509a\n    function is_device_present (address device_id) public constant returns (bool result) {\n        // return false if no device present yet!\n        if(device_index.length == 0) return false;\n        // return true if device exists\n        return (device_index[device_logs[device_id].index] == device_id);\n    }\n\n    // helper function for string concatenation\n    // http://cryptodir.blogspot.com.tr/2016/03/solidity-concat-string.html\n    function filehash_concat (string h1, string h2) internal constant returns (string concat) {\n        bytes memory b1 = bytes(h1);\n        bytes memory b2 = bytes(h2);\n        string memory sm = new string(b1.length + 1 + b2.length);\n        bytes memory bm = bytes(sm);\n        uint i = 0;\n        uint k = 0;\n        for (i = 0; i < b1.length; i++) bm[k++] = b1[i];\n        bm[k++] = ',';\n        for (i = 0; i < b2.length; i++) bm[k++] = b2[i];\n        return string(sm);\n    }\n\n    // push specific device data handle into the chain\n    function set_device_data (address device_id, string filehash) public returns (uint index, uint timestamp) {\n        uint ts;\n        if(is_device_present(device_id)) {\n            // device already exists\n            ts = now;\n            if( device_logs[device_id].timestamps.length == 0 ||\n                device_logs[device_id].timestamps[device_logs[device_id].timestamps.length-1] < ts) {\n                // first insertion or insertion made (at least) in last block \n                device_logs[device_id].timestamps.push(ts);\n                device_logs[device_id].filehashes[ts] = filehash;\n            } else if(device_logs[device_id].timestamps[device_logs[device_id].timestamps.length-1] == ts) {\n                // data inserted before, lets concat data for that certain timestamp\n                device_logs[device_id].filehashes[ts] = filehash_concat(device_logs[device_id].filehashes[ts], filehash);\n            } else {\n                // doc, this is heavy!\n                assert(false);\n            }\n            // trigger event\n            log_action(device_id, device_logs[device_id].index, ts, filehash);\n            return(device_logs[device_id].index, ts);\n        } else {\n            // device received first time\n            ts = now;\n            device_logs[device_id].timestamps.push(ts);\n            device_logs[device_id].filehashes[ts] = filehash;\n            device_logs[device_id].index = device_index.push(device_id)-1;\n            // trigger event\n            log_action(device_id, device_index.length-1, ts, filehash);\n            return(device_index.length-1, ts);\n        }\n    }\n\n    // get received data at a certain timestamp for a specific device\n    function get_device_data (address device_id, uint timestamp) public constant returns (string hash) {\n        if(!is_device_present(device_id)) revert();\n        return device_logs[device_id].filehashes[timestamp];\n    }\n\n    // get all data timestamps for a specific device\n    // TODO create a timestamp getter() with start-end interval\n    function get_device_timestamps (address device_id) public constant returns (uint[] timestamp) {\n        if(!is_device_present(device_id)) revert();\n        return device_logs[device_id].timestamps;\n    }\n\n    // get total device count\n    function get_device_count() public constant returns (uint count) {\n        return device_index.length;\n    }\n\n    // get device address from index\n    function get_device_at_index (uint index) public constant returns (address device_address) {\n        return device_index[index];\n    }\n\n    // constructor\n    function vendor() {\n        creator = msg.sender;\n    }\n\n    // kills contract and sends remaining funds back to creator\n    function kill() {\n        if (msg.sender == creator) {\n            selfdestruct(creator);\n        }\n    }\n}\n",
  "sourcePath": "/home/swap/hack_entry/contracts/Vendor.sol",
  "compiler": {
    "name": "solc",
    "version": "0.4.24+commit.e67f0147.Emscripten.clang"
  },
  "schemaVersion": "2.0.1",
  "updatedAt": "2018-12-16T01:51:33.905Z"
}